:020000040800F2
:1000000090130020CD280008150C0008170C0008DC
:100010001B0C00081F0C0008230C00080000000047
:10002000000000000000000000000000270C000895
:10003000290C0008000000002B0C00082D0C000803
:10004000E7280008E7280008E7280008E728000854
:10005000E7280008E7280008E7280008E728000844
:10006000E7280008E7280008E7280008E728000834
:10007000E7280008E7280008E7280008E728000824
:10008000E7280008E7280008E7280008E728000814
:10009000E7280008E7280008E7280008E728000804
:1000A000E7280008E7280008E7280008E7280008F4
:1000B000E7280008E7280008E7280008E7280008E4
:1000C000E7280008E7280008E7280008E7280008D4
:1000D000E728000843280008E7280008E728000868
:1000E000E7280008E7280008E7280008E7280008B4
:1000F000E7280008E7280008E7280008E7280008A4
:10010000E7280008E7280008E7280008E728000893
:10011000E7280008E7280008E7280008E728000883
:10012000E7280008E7280008E7280008E728000873
:1001300000F002F800F066F80AA090E8000C824493
:100140008344AAF10107DA4501D100F05BF8AFF270
:10015000090EBAE80F0013F0010F18BFFB1A43F0A5
:1001600001031847445300006453000010F8013B9A
:100170000A4413F0030408BF10F8014B1D1108BF17
:1001800010F8015B641E05D010F8016B641E01F8C5
:10019000016BF9D1002D15D010F8014B03F00C03C1
:1001A0000C2BA1EB04040ABF10F8013BA4EB831451
:1001B000A4EB032405F1010314F8016B5B1E01F8A5
:1001C000016BF9D5914238BF10F8013BD1D370478C
:1001D0000023002400250026103A28BF78C1FBD850
:1001E000520728BF30C148BF0B607047642903F035
:1001F000D581782903F00E82002070471FB51FBDFE
:1002000010B510BD03F0E2FA1146FFF7F7FF00F05A
:100210006FFB03F000FB03B4FFF7F2FF03BC02F037
:1002200023FA000010B504460020FE49086064204F
:1002300002F0EDF90120FC49C1F88801FB48B0F952
:100240000000401E00EB400004EBC00080680B285B
:100250000AD1F74800681230F54908600020F549D6
:10026000F54A126841F82200F048B0F90000401E3B
:1002700000EB400004EBC00080680C280AD1EC4879
:1002800000681C30EA4908600120EA49EA4A12681D
:1002900041F82200E548B0F90000401E00EB4000A4
:1002A00004EBC00080680D280AD1E14800681630D0
:1002B000DF4908600220DF49DF4A126841F8220066
:1002C000DA48B0F90000401E00EB400004EBC0002B
:1002D00080680E280AD1D64800680C30D4490860DE
:1002E0000320D449D44A126841F82200CF48B0F91B
:1002F0000000401E00EB400004EBC00080680F28A7
:100300000AD1CB4800680830C94908600421C948AF
:10031000C94A126840F82210C448B0F90000401ED3
:1003200000EB400004EBC000806815280AD1C048EB
:1003300000682630BE4908600520BE49BE4A1268E2
:1003400041F82200B948B0F90000401E00EB40001F
:1003500004EBC000806816280AD1B5480068303028
:10036000B34908600620B349B34A126841F8220035
:10037000AE48B0F90000401E00EB400004EBC000A6
:1003800080681F280AD1AA4800680A30A849086076
:100390000720A849A84A126841F82200A348B0F9EA
:1003A0000000401E00EB400004EBC00080682028E5
:1003B0000AD19F4800680A309D49086008219D487D
:1003C0009D4A126840F822109848B0F90000401E7B
:1003D00000EB400004EBC000806821280AD194485B
:1003E00000680F309249086009209249924A1268C9
:1003F00041F822008D48B0F90000401E00EB40009B
:1004000004EBC000806829280AD189480068001DD3
:10041000874908600A208749874A126841F8220004
:100420008248B0F90000401E00EB400004EBC00021
:1004300080682A280AD17E480068801D7C490860AF
:100440000B207C497C4A126841F822007A480068F7
:10045000401C7949086010BD2DE9F84304460D465B
:100460004FF01E093C264FF0000811E04FF6FF70D8
:10047000009008EB480004EBC000002331464268BE
:10048000484601F0D0FF06F11E0086B208F10108CF
:10049000681E4045EADC0020684908804FF6FF707E
:1004A0000090681E00EB400004EBC0004FF478435E
:1004B00031464268484601F0B6FF06F11E0086B29A
:1004C00006F1150083B209F1780082B23146484640
:1004D00001F05BFD681E00EB400004EBC00080688B
:1004E000002810DD681E00EB400004EBC0008068AF
:1004F0000A2808DC00204FF6FF7351A21E2100904D
:10050000562001F090FF681E00EB400004EBC00095
:1005100080680A2810DD681E00EB400004EBC00074
:100520008068142808DC00204FF6FF7346A21E21C5
:100530000090462001F077FF681E00EB400004EBBE
:10054000C0008068142810DD681E00EB400004EB3A
:10055000C00080681E2808DC00204FF6FF733DA213
:100560001E210090462001F05EFF681E00EB400057
:1005700004EBC00080681E2810DD681E00EB400000
:1005800004EBC0008068282808DC00204FF6FF73C9
:1005900033A21E210090462001F045FF681E00EBAB
:1005A000400004EBC0008068282810DD681E00EBC6
:1005B000400004EBC0008068322808DC00204FF6C1
:1005C000FF732AA21E210090662001F02CFF681EF6
:1005D00000EB400004EBC0008068322810DD681E8C
:1005E00000EB400004EBC00080683C2808DC0020E1
:1005F0004FF6FF731FA21E210090462001F013FF4B
:100600002F463FE04FF6FF70009007EB470004EBEA
:10061000C000002331464268484601F004FF06F15D
:100620001E002DE088812242008022421C0300200F
:1006300004000020F80B002000000020D20B002056
:10064000D6F7B2CBB5A50000B7E7CEB6B3B4B2CB00
:1006500000000000BFDACEB6BBF0B9F80000000021
:10066000C7E5B5ADCCC0C0E000000000D2FBC1CFF3
:1006700000000000CED2B5E3B5C4B2CB000000004C
:1006800086B27F1CB4F90000B842BBDCBDE8F88339
:1006900010B5014600200CE0FE4A52F82020FE4B27
:1006A00053F8222000EB4003FC4C04EBC3035A60D8
:1006B000401CFB4A12689042EED310BD10B50020DA
:1006C000F8490860642001F0A2FF0120F649C1F852
:1006D0008801F6A002F00EFF642001F098FF10BD23
:1006E00010B50020EF490860642001F090FF012060
:1006F000ED49C1F88801642001F089FF0020E94933
:100700000860642001F083FF0120E749C1F88801F7
:10071000ECA002F0EFFEEFA002F025F8002419E0B3
:10072000DC4850F824000C2813D2DA4A52F824206E
:10073000E94B53F82210D74A52F82420E74B53F8DC
:10074000220002F074F8E6A002F00DF8E1A002F039
:100750000AF8641CD24800688442E1D3E148016889
:10076000E1A002F064F8DEA001F0FDFF01F0F3FF6C
:1007700010BD10B504460020DD490860642001F07A
:1007800046FF0120DB49C1F8A001DB48B0F90000B9
:10079000401EC04951F8200020B9D24800681238E4
:1007A000D0490860D448B0F90000401EB94951F85A
:1007B0002000012804D1CB4800681C38C9490860D2
:1007C000CD48B0F90000401EB24951F8200002287F
:1007D00004D1C44800681638C2490860C648B0F958
:1007E0000000401EAB4951F82000032804D1BD4849
:1007F00000680C38BB490860BF48B0F90000401ED3
:10080000A44951F82000042804D1B64800680838EB
:10081000B4490860B848B0F90000401E9D4951F83D
:100820002000052804D1AF4800682638AD4908608B
:10083000B148B0F90000401E964951F82000062842
:1008400004D1A84800683038A6490860AA48B0F921
:100850000000401E8F4951F82000072804D1A1480C
:1008600000680A389F490860A348B0F90000401E9C
:10087000884951F82000082804D19A4800680A38AD
:10088000984908609C48B0F90000401E814951F821
:100890002000092804D1934800680F389149086066
:1008A0009548B0F90000401E7A4951F820000A2806
:1008B00004D18C480068001F8A4908608E48B0F94E
:1008C0000000401E734951F820000B2804D18548D0
:1008D0000068801F834908600C218748B0F9000038
:1008E000401E6C4A42F820102046FFF7D1FE10BD92
:1008F0001CB5002401F04EFE4FF4165001F0C3FE6B
:1009000000F086FA01F0A0F801F0C6FD4FF4A060F7
:1009100002F080FD00207949088079487949086112
:1009200079497848816279490164794981655B49EF
:100930000167012070490880002059490860694911
:1009400008605A234FF482720146009001F015FAB4
:1009500000204FF4A0734FF482724FF4877100901F
:1009600001F00BFA6BA018210B46C822CDE900104C
:100970006E21322001F0C0FC69A010210B46C82274
:10098000CDE900109621282001F0B6FC69A01021C5
:100990000B46C822CDE90010BE21462001F0ACFC78
:1009A00067A00C210B46C822CDE90010E6214620A5
:1009B00001F0A2FC42F2283001F029FE4FF6FF7050
:1009C00001F005F84C48B0F9001060480068FFF7E6
:1009D00043FD19E143485EA102685F4802F096FDBD
:1009E0005D4810210B46C822CDE900101E210A20C7
:1009F00001F082FC002001F078FD04460A2001F09D
:100A000006FE012C04D0022C43D0032C1FD11FE082
:100A10004FF6FF7000F0DBFF4C480068B0F90000B3
:100A20003549B1F90010884203D1012032490880CC
:100A300005E031480088401C00B22F4908802E484C
:100A4000B0F9001041480068FFF706FD0024D7E028
:100A50002948B0F90000401E00EB40003B490968FE
:100A600001EBC000006998B14FF6FF7000F0AFFFD6
:100A70002148B0F90000401E00EB400033490968EE
:100A800001EBC00000693149086001201A4965E0A6
:100A90006DE08CE0F80B00200800002058020020D8
:100AA0000000002088812242008022420D0A30315D
:100AB000BAC5D7C0BAF4BDD0B7FECEF1D4B1A3A1A8
:100AC0000D0A00000D0A3031BAC5D7C0B5E3B5C470
:100AD000B2CB3A0D0A000000700000203C0000205C
:100AE000D4AA000004000020BACFBCC6A3BA0000FC
:100AF000A0012142000021421C030020D20B002053
:100B000038010020A8000020B0010020E0010020F2
:100B10002802002057656C636F6D656420544F0098
:100B20002A2A484F4D452052657374617572616E73
:100B3000742A2A00474C555440506F656B69000079
:100B4000323031392F31322F323600001803002075
:100B500053554D3A25640000480C00200880084693
:100B6000B0F9001029480068FFF776FC1DE028481E
:100B7000B0F90000401E00EB40002449096801EB79
:100B8000C000C06888B12248B0F90000401E00EBE8
:100B900040001E4A126802EBC000C1681B48006892
:100BA00088471A480068FFF773FD002428E01848BA
:100BB000B0F90000401E00EB40001449096801EB49
:100BC000C0004069D0B14FF6FF7000F000FF104840
:100BD000B0F90000401E00EB40000C49096801EB31
:100BE000C000406909490860012009490880084699
:100BF000B0F9001005480068FFF72EFC002400BF84
:100C000000BF0A2001F003FDE4E600001803002005
:100C10001C030020704700BFFEE700BFFEE700BFD7
:100C2000FEE700BFFEE7704770477047704700005F
:100C30000CB50020019000906C48006840F48030B2
:100C40006A49086000BF6948006800F400300090FD
:100C50000198401C0190009818B90198B0F5A06F58
:100C6000F1D16248006800F4003010B1012000901A
:100C700001E0002000900098012843D15C48006802
:100C800040F010005A4908600846006820F0030050
:100C900008600846006840F0020008605348406859
:100CA000524948600846406848600846406840F439
:100CB000806048600846406820F47C104860084620
:100CC000406840F4E81048600846006840F08070D2
:100CD000086000BF4548006800F000700028F9D0A7
:100CE0004248406820F00300404948600846406898
:100CF00040F00200486000BF3C48406800F00C0033
:100D00000828F9D10CBD10B5FFF792FF10BD10B542
:100D10003648006840F001003449086008464068E1
:100D20003449084031494860084600683249084063
:100D30002E4908600846006820F4802008600846B4
:100D4000406820F4FE0048604FF41F008860FFF701
:100D5000DAFF4FF000602949086010BD10B500218E
:100D600000200022214B5B6803F00C0121B1042913
:100D700006D0082928D107E0214B224C236027E028
:100D80001F4B204C236023E0184B5B6803F470106A
:100D9000164B5B6803F48032022303EB904022B9C8
:100DA000194B4343174C23600DE0104B5B6803F471
:100DB000003323B1144B4343124C236003E0104B28
:100DC0004343104C236003E00D4B0E4C236000BFE7
:100DD00000BF064B5B68C3F303130C4CE15C094B8B
:100DE0001B68CB40074C236010BD00000010024080
:100DF000002002400000FFF8FFFFF6FE08ED00E0D3
:100E000000127A002003002000093D002403002086
:100E100008B50121242002F095F84FF48070ADF858
:100E2000000010208DF8030003208DF802006946B1
:100E3000094801F0CBFD4FF48071074801F073FEC3
:100E40000420ADF800006946044801F0BFFD04210C
:100E5000024801F068FE08BD00080140001401408E
:100E60004FF48071FE4A516149005161FD490860AB
:100E70008021516111618900116170474FF48071C7
:100E8000F74A116149005161F649086080215161BA
:100E9000116189001161704710B54FF08830F14938
:100EA0000C390860091D08600020EE4908608815AB
:100EB000EB4908614000486140204861EA48808869
:100EC00048F68911884202D1022001F07CFBE548F6
:100ED000001F006884B24020E1490861C000086139
:100EE0004FF03330DF490C390860091D08604FF6B8
:100EF000FF70DC490860204610BD10B504460B4663
:100F00002046FFF7ADFF4FF48070D54908614000DF
:100F10004861D4480360802048610861800008610E
:100F200010BD10B504462046FFF79AFFFFF7B4FF47
:100F300010BD00B5CC490889FFF792FF00BD4FF402
:100F40008071C74A116149005161C649086080211A
:100F50005161116189001161704730B5014601F09E
:100F60001F04C1F34513CA0AE50205EB43151544F6
:100F7000A8B230BD00BF011EA0F10102D0B2FAD16B
:100F8000704730B504460D46B748808849F2413174
:100F9000884240D1B4494889FFF762FF4FF480701E
:100FA000AF490861400048612012AE4908608020C6
:100FB000AB49486108618000086140100861400049
:100FC0004861E0B2A74908608020A54948610861EE
:100FD00080000861A4498889FFF742FF4FF48070C0
:100FE0009F4908614000486128129E49086080209E
:100FF0009B49486108618000086140100861400019
:101000004861E8B2974908608020954948610861C5
:101010008000086112E094488079012804D1924848
:101020000088401E001B84B28F4948892146FFF783
:1010300064FF8D4988892946FFF75FFF30BD2DE9A0
:10104000F04105460E4688480088A84203DD8648E0
:101050004088B04202DC0020BDE8F08131462846DD
:10106000FFF78FFF8048808849F24131884211D0D4
:101070007D48808846F6040188420BD07A488088F3
:1010800045F21031884205D07748808841F66311D7
:10109000884203D12E20FFF7E3FE0DE072488088DE
:1010A00045F21051884204D14FF43850FFF7D8FE72
:1010B00002E02220FFF7D4FE4FF0883069490C3956
:1010C0000860091D08604FF6FF70664908608815C2
:1010D0006349086140004861402048610220FFF7F1
:1010E00049FF6048001F006884B240205C490861E5
:1010F00048610220FFF73EFF5A48001F006884B293
:101100004020574908615848808849F24131884257
:1011100012D14020524948610220FFF72BFF51486D
:10112000001F00681FFA80F840204D490861E7B2AF
:101130004FF6FF7000EA07274FF400704849086136
:101140004FF0333047490C390860091D08604FF6ED
:10115000FF70444908604448808849F24131884220
:1011600007D1E012C002B91240EA411040EAE8207B
:1011700072E72046FFF7F1FE6EE700B53A48808837
:1011800049F24131884203D12920FFF769FE04E08A
:1011900040F273110720FFF7B0FE00BD00B53248E2
:1011A000808849F24131884203D12820FFF758FE58
:1011B00003E000210720FFF7A0FE00BDF0B50546C3
:1011C000002400272848808849F2413188427DD197
:1011D000082D1CD2DFE805F00406090C0F121518C3
:1011E00000BF14E044F0800411E044F040040EE03D
:1011F00044F0C0040BE044F0200408E044F0600434
:1012000005E044F0A00402E044F0E00400BF00BFA9
:101210001548808845F21051884202D14FF4585742
:1012200000E036271048808845F2103188420DD002
:101230000D48808845F21051884207D00A488088BE
:1012400041F66311884201D044F0080406488088C2
:1012500046F60401884201D144F00204214605E02B
:10126000001001400C0C0140540C00203846FFF7E0
:1012700044FEFE48808841F6631188421DD004F088
:10128000200068B1F9480088F8494988884214DA92
:10129000F64806884088F5490880084646800CE0F4
:1012A000F2480088F1494988884206DDEF480688FF
:1012B0004088EE49088008464680EC48808845F220
:1012C000105188427ED1E949488900E031E1FFF7B9
:1012D000C7FD4FF48070E649086140004861002076
:1012E000E44908608020E2494861086180000861A3
:1012F000DE494989491C88B2FFF7B2FD4FF480707E
:10130000DB490861400048610020DA49086080201C
:10131000D7494861086180000861D4494989891C1E
:1013200088B2FFF79DFD4FF48070D14908614000FD
:101330004861CE480088401E0012CE4908608020D7
:10134000CB494861086180000861C8494989C91CC6
:1013500088B2FFF785FD4FF48070C54908614000F1
:101360004861C2480078401EC0B2C249086080206F
:10137000BF494861086180000861BC498889FFF75E
:101380006FFD4FF48070BA49086140004861002049
:10139000B84908608020B64948610861800008614A
:1013A000B2498989491C88B2FFF75AFD4FF4807011
:1013B000AF490861400048610020AE4908608020C4
:1013C000AB4900E034E04861086180000861A7494A
:1013D0008989891C88B2FFF743FD4FF48070A449C6
:1013E000086140004861A1484088401E0012A149A0
:1013F000086080209E4948610861800008619B491F
:101400008989C91C88B2FFF72BFD4FF48070984979
:1014100008614000486195488078401EC0B29549F7
:101420000860802092494861086180000861A7E057
:101430008E494889FFF714FD4FF480708C4908618C
:101440004000486100208B4908608020884948613D
:101450000861800008614010086140004861002078
:1014600084490860802082494861086180000861E1
:1014700040100861400048617C480088401E00120E
:101480007C49086080207A494861086180000861D1
:10149000401008614000486174480078401EC0B2A6
:1014A00074490860802072494861086180000861C1
:1014B0006E498889FFF7D4FC4FF480706C4908614D
:1014C0004000486100206B490860802068494861FD
:1014D00008618000086140100861400048610020F8
:1014E00064490860802062494861086180000861A1
:1014F00040100861400048615C484088401E00126E
:101500005C49086080205A49486108618000086190
:10151000401008614000486154488078401EC0B2C5
:101520005449086080205249486108618000086180
:1015300026E0082D1CD2DFE805F004070A0D0F1283
:10154000151844F0300413E044F0100410E044F0A7
:1015500020040DE000BF0BE044F0380408E044F044
:10156000280405E044F0180402E044F0080400BF39
:1015700000BF032744F4805421463846FFF7BDFCE2
:10158000F0BD30B504460D4629462046FFF7F9FC6C
:10159000FFF7CFFC4FF48070354908614000486187
:1015A0003548008833490860802031494861086126
:1015B0008000086130BD70B504460D4616462B48C4
:1015C000808849F24131884240D128494889FFF753
:1015D00047FC4FF4807026490861400048612012A2
:1015E0002449086080202249486108618000086120
:1015F0004010086140004861E0B21E490860802048
:101600001B49486108618000086118498889FFF713
:1016100027FC4FF480701649086140004861281289
:1016200014490860802012494861086180000861FF
:101630004010086140004861E8B20E49086080200F
:101640000B4948610861800008611BE00748807908
:10165000012804D105480088401E001B84B20349BC
:1016600048892146FFF749FC004907E0540C002057
:10167000001001400C0C0140D20B00208889294643
:10168000FFF73BFC4FF48070FE4948614000486121
:10169000FD480089FD4908608020FA4948610861D9
:1016A000800008614010086140004861F74806600A
:1016B0008020486108618000086170BD2DE9F0411B
:1016C0000446BE20FFF7CCFB4FF48070ED49086163
:1016D000400048610520ED4908608020E9494861E3
:1016E00008618000086140100861400048612046A0
:1016F00002F0CBF805464FF06632E54B02F0D8F821
:10170000074602F095F8E14908608020DD4948610C
:1017100008618000086140100861400048610120B4
:10172000DA4908608020D749486108618000086173
:101730004010086140004861FF20D44908608020C3
:10174000D04948610861800008614010086140008C
:1017500048610020CD4908608020CA49486108617D
:101760008000086140100861400048610020C749BE
:1017700008608020C3494861086180000861BDE8B5
:10178000F08110B50446002C3BD1BF498871F02090
:1017900008804FF4A07048800846808849F24131A3
:1017A00088420BD0B848808846F60401884205D0AC
:1017B000B548808845F2103188421AD12C20B249B0
:1017C00008812A2048812B2088810846808846F697
:1017D0000401884205D0AC48808845F21031884227
:1017E00032D14FF4A070A84908804FF4F0704880BF
:1017F0002AE02220A44908812020488121208881D4
:1018000022E00120A04988714FF4A0700880F020E8
:1018100048800846808849F24131884205D09A487C
:10182000808845F21031884207D12C2096490881E2
:101830002A2048812B20888106E0222092490881B5
:1018400021204881202088810020FFF7B7FC10BDAF
:101850002DE9FF4F84B004460D4606982044401EF3
:1018600086B207982844401E87B28748808849F28C
:101870004131884275D184494889FFF7F1FA4FF424
:101880008070804908614000486120127F490860EB
:1018900080207C494861086180000861401008612F
:1018A00040004861E0B2794908608020754948618C
:1018B00008618000086140100861400048613012F2
:1018C0007249086080206F494861086180000861A2
:1018D0004010086140004861F0B26C490860802007
:1018E0006849486108618000086167498889FFF795
:1018F000B7FA4FF4807063490861400048612812CC
:101900006249086080205F49486108618000086181
:101910004010086140004861E8B25C4908608020DE
:101920005849486108618000086140100861400022
:101930004861381255490860802052494861086161
:10194000800008614010086140004861F8B24F49CA
:10195000086080204B49486108618000086133E0DD
:10196000FFE74948807901280ED1A846B946464884
:101970000088801B401E1FFA80FA43480088001B25
:10198000401E1FFA80FB03E0A046B146AA46BB46B4
:10199000502003905120029052200190532000903B
:1019A00041460398FFF7A9FA49460298FFF7A5FABE
:1019B00051460198FFF7A1FA59460098FFF79DFAA2
:1019C00029462046FFF7DDFA08B0BDE8F08F70B574
:1019D000044600262C480588408845432A488088CC
:1019E00046F60401884216D127488079012812D191
:1019F0000020254988712A2048812B2088810021D8
:101A00000846FFF7BEFA01201F4988712B20488144
:101A10002A20888103E000210846FFF7B2FAFFF789
:101A200088FA00260DE04FF48070164908614000E6
:101A300048611648046080204861086180000861A0
:101A4000761CAE42EFD370BD08B50121192001F01C
:101A500079FA01210F4801F08AF84FF4F860ADF8E7
:101A6000000010208DF8030003208DF80200694665
:101A7000044800F0ABFF4FF4F861024801F053F85E
:101A80000AE0000000100140540C00200C0C014042
:101A900066660440000230004FF6FF70ADF80000AB
:101AA0006946F74800F092FF4FF6FF71F44801F0E5
:101AB0003AF8322000F0ABFD01210020FFF71DFABB
:101AC000322000F0A4FD0020FFF72BFAED498880BA
:101AD00008468088FF280ADB084680884FF6FF7199
:101AE000884204D0E7488088B0F5134F19D1D3203D
:101AF000FFF7B6F9FFF7D0F9FFF7CEF9FFF7CCF90A
:101B0000E0498880084680884FF6FF7101EA00208E
:101B1000DC498880FFF7C0F9DA4989880843D94948
:101B20008880D8488188D8A001F0E4FCD548808816
:101B300049F2413188427CD1CF20FFF791F9002052
:101B4000FFF79CF9C120FFF799F93020FFF796F9CC
:101B5000ED20FFF785F96420FFF790F90320FFF7E8
:101B60008DF91220FFF78AF98120FFF787F9E82025
:101B7000FFF776F98520FFF781F91020FFF77EF94E
:101B80007A20FFF77BF9CB20FFF76AF93920FFF7BE
:101B900075F92C20FFF772F90020FFF76FF9342058
:101BA000FFF76CF90220FFF769F9F720FFF758F902
:101BB0002020FFF763F9EA20FFF752F90020FFF732
:101BC0005DF90020FFF75AF9C020FFF749F91B2003
:101BD000FFF754F9C120FFF743F90120FFF74EF951
:101BE000C520FFF73DF93020FFF748F93020FFF717
:101BF00045F9C720FFF734F9B720FFF73FF9362042
:101C0000FFF72EF94820FFF739F93A20FFF728F9B6
:101C10005520FFF733F9B120FFF722F90020FFF735
:101C20002DF91A20FFF72AF9B620FFF719F90A2033
:101C300000E097E0FFF722F9A220FFF71FF9F2205A
:101C4000FFF70EF90020FFF719F92620FFF708F932
:101C50000120FFF713F9E020FFF702F90F20FFF74B
:101C60000DF92A20FFF70AF92820FFF707F90820C5
:101C7000FFF704F90E20FFF701F90820FFF7FEF83F
:101C80005420FFF7FBF8A920FFF7F8F84320FFF7EF
:101C9000F5F80A20FFF7F2F80F20FFF7EFF8002021
:101CA000FFF7ECF80020FFF7E9F80020FFF7E6F86F
:101CB0000020FFF7E3F8E120FFF7D2F80020FFF75C
:101CC000DDF81520FFF7DAF81720FFF7D7F807201F
:101CD000FFF7D4F81120FFF7D1F80620FFF7CEF870
:101CE0002B20FFF7CBF85620FFF7C8F83C20FFF772
:101CF000C5F80520FFF7C2F81020FFF7BFF80F2046
:101D0000FFF7BCF83F20FFF7B9F83F20FFF7B6F820
:101D10000F20FFF7B3F82B20FFF7A2F80020FFF702
:101D2000ADF80020FFF7AAF80120FFF7A7F83F2041
:101D3000FFF7A4F82A20FFF793F80020FFF79EF89A
:101D40000020FFF79BF80020FFF798F8EF20FFF73F
:101D500095F81120FFF784F8782000F058FC29202E
:101D6000FFF77EF80020FFF70CFD01204A490860CC
:101D70004FF6FF70FFF72BFE08BD2DE9FC4F05461F
:101D80000E4617469846DDF82C90002001903D48FD
:101D9000808846F60401884229D13A488079012892
:101DA00025D1AB46354637480088C01B401E86B259
:101DB000474634480088A0EB0B00401E1FFA80F80D
:101DC0000020304988712A2048812B208881434691
:101DD0003A4631462846CDF80090FFF7CEFF012065
:101DE000284988712B2048812A20888128E0781B87
:101DF000401C80B20190344620E021462846FFF77F
:101E0000C0F8FFF796F84FF0000A12E04FF4807028
:101E1000224908614000486119480C30C0F8009020
:101E2000802048610861800008610AF101001FFA02
:101E300080FA01988245E9DB601C84B24445DCDD10
:101E4000BDE8FC8F2DE9F84F07460D4690469946B0
:101E5000DDF828B0A8EB0700401C1FFA80FAA9EBB8
:101E60000500401C80B20090002431E0281981B2A6
:101E70003846FFF786F8FFF75CF8002624E00000FC
:101E8000000C0140540C0020204C43442049443AAB
:101E900025780D0A00000000A80122420010014030
:101EA0004FF48070FE4908614000486104FB0A60FD
:101EB0003BF81000FB4908608020F949486108613F
:101EC00080000861701C86B25645E9DB601C84B254
:101ED00000988442CADBBDE8F88F2DE9FF4F84B03B
:101EE00081468A460020039002900698A0EB0905DF
:101EF0000798A0EB0A06CDF80490CDF800A0002DBD
:101F000001DD012705E00DB9002702E04FF0FF37A2
:101F10006D42002E02DD4FF0010806E016B94FF0C9
:101F2000000802E04FF0FF387642B54201DD2C4652
:101F300000E034464FF0000B21E0009A91B2019A84
:101F400090B2FFF71EFB0398284403900298304498
:101F500002900398A04205DD0398001B03900198AE
:101F6000384401900298A04205DD0298001B0290BF
:101F70000098404400900BF101001FFA80FB601CA8
:101F80008345DADD08B0BDE8F08FF0B504460D46B4
:101F900016461F462B46324629462046FFF79DFF30
:101FA0003B46224629462046FFF797FF3B463246EE
:101FB00039462046FFF791FF3B46324629463046D8
:101FC000FFF78BFFF0BD2DE9F04306460F46904624
:101FD000002445460320A0EB48093CE07A1B91B25F
:101FE000321990B2FFF7CDFA3A1B91B2721990B242
:101FF000FFF7C7FA3A1991B2721990B2FFF7C1FA16
:102000007A1991B2321990B2FFF7BBFA7A1991B2EC
:10201000321B90B2FFF7B5FA3A1991B2721B90B227
:10202000FFF7AFFA7A1B91B2321B90B2FFF7A9FA11
:102030003A1B91B2721B90B2FFF7A3FA641CB9F17C
:10204000000F03DAA000801D814404E0601B8000C3
:102050000A3081446D1EAC42C0DDBDE8F0832DE93D
:10206000F84F80460E4617461C46B3462046E317F7
:1020700004EB5373DB1021464FEAE47C04EB5C7CF9
:102080004FEAEC0CA4EBCC0CBCF1000F02D04FF0EB
:10209000010C01E04FF0000C6344224604EBD27CBB
:1020A0004FEA6C0C03FB0CF3DBB20093A7F12000AA
:1020B000C7B2002556E00C2C07D107EB47007A4940
:1020C00001EB800010F8059013E0102C05D1774843
:1020D00000EB071010F805900BE0182C07D107EB68
:1020E000C700734901EB800010F8059001E0BDE8DE
:1020F000F88F4FF0000A2FE009F0800030B16D48F2
:10210000028831464046FFF756FA07E00A9828B998
:102110006948028831464046FFF74DFA4FEA496068
:102120004FEA1069701C86B264484088B04200DCF7
:10213000DDE7A6EB0B00A0420AD15E4608F10100E4
:102140001FFA80F85D480088404500DCCFE706E0D4
:102150000AF1010000F0FF0ABAF1080FCCDB00BF62
:10216000681CC5B200988542A5DB00BFBFE710B56B
:102170000246012000E050430B1EA1F10104E1B230
:10218000F9D110BD2DE9FF4F81B0074691461E469B
:102190000E9D4FF0000A002439E0301B401EC1B2F2
:1021A0000A20FFF7E4FFB9FBF0F00A21B0FBF1F2DF
:1021B00001FB1208BAF1000F16D1701EA04213DD08
:1021C000B8F1000F0ED10020AB4605EBDB714910D2
:1021D00001FB0471009088B22B4620220299FFF780
:1021E0003EFF12E04FF0010A0020AB4605EBDB7129
:1021F000491001FB0471009088B208F13001CAB2A5
:102200002B460299FFF72BFF00BF601CC4B2B442FB
:10221000C3DB05B0BDE8F08F2DE9FF4F82B0064665
:1022200092461F46DDE90F480020019000255EE040
:10223000781B401EC1B20A20FFF799FFBAFBF0F0ED
:102240000A21B0FBF1F201FB12090198C0BB781E14
:10225000A84238DDB9F1000F33D108F0800078B121
:1022600008F00100A34604EBDB71491001FB056196
:10227000009088B2234630220399FFF7F0FE0EE06B
:1022800008F00100A34604EBDB71491001FB056176
:10229000009088B2234620220399FFF7E0FE24E055
:1022A000001001400C0C0140AC3A0008203F00082F
:1022B00010450008D20B0020D40B0020540C002045
:1022C00001E00120019008F00100A34604EBDB715E
:1022D000491001FB0561009088B209F13001CAB2D2
:1022E00023460399FFF7BBFE00BF681CC5B2BD4281
:1022F0009EDB06B0BDE8F08F2DE9F84704460D4699
:1023000090469946DDE9096704F0FF0A08EB0400EE
:102310001FFA80F809EB05001FFA80F916E0444522
:1023200002DB5446A81985B24D4500DB14E00020BD
:1023300000903A78334629462046FFF790FE304613
:1023400006EBD07104EB61018CB27F1C38787E28DB
:1023500002DC38782028E2DA00BFBDE8F8872DE9F2
:10236000F04F81468A4615469846DDF824B0102382
:102370001A4651464846FFF76BFA51464846FEF763
:1023800000FEFEF7D6FD002449E0C4EBC40000EBDC
:1023900080003E49085C297888423FD1C4EBC400E4
:1023A00000EB80003949084440786978884235D18B
:1023B000002631E0C4EBC40101EB8101334A114432
:1023C000C91C885D002724E000F0800180290DD120
:1023D00049002F4A1161490051612E49C1F800801E
:1023E000802151611161890011610DE04FF480710C
:1023F000274A1161490051612649C1F800B0802186
:1024000051611161890011614FF6FF7101EA4000CD
:102410007F1C082FD8D3761C202ECBD3641C402CD5
:10242000B3D3BDE8F08F2DE9FC4707460D461446AF
:102430009946DDF828A00026B04621E020788028C3
:1024400011DA1020A9B2C8EBC802CDE9000402F1EC
:102450007C001023C822FFF74FFF08F1010000F0B5
:10246000FF08641C0CE0A9B207EBC60290B24B4611
:102470002246CDF800A0FFF772FFA41CB01CC6B224
:1024800020780028DAD1BDE8FC8700003403002062
:10249000001001400C0C014008B50121142000F08F
:1024A00051FD0121374800F062FB4FF40040ADF8C8
:1024B000000048208DF803006946334800F086FA92
:1024C0002020ADF8000048208DF8030069462F4811
:1024D00000F07CFA0120ADF8000028208DF8030000
:1024E0006946294800F072FA08BD10B5044614B1D7
:1024F0000120274908702648007868B32021234826
:1025000000F0F7FA58B14FF400411F4800F0F1FA1B
:1025100028B101211C4800F0ECFA01281CD10A2046
:1025200000F075F800201A4908702021174800F0C3
:10253000E0FA08B9012010BD4FF40041124800F044
:10254000D8FA08B90220F6E701210F4800F0D1FAC5
:10255000012815D10320EEE720210C4800F0C9FA2C
:1025600001280DD1C103084800F0C3FA012807D1A2
:102570000121054800F0BDFA10B901200449087096
:102580000020D8E7000230000008014000100140A0
:10259000D60B002010B56FF0040000F08AFF2E4823
:1025A00000682E49B0FBF1F02D490870084600780C
:1025B00000EB4001C1EBC0104FF6FF7101EAC00013
:1025C0002849088010BD0146254A12784A434FF039
:1025D000E0235A6100229A611A46126942F0010210
:1025E0001A6100BF4FF0E022106900F001021AB139
:1025F00000F48032002AF5D04FF0E022126922F078
:1026000001024FF0E0231A6100229A6170470146EF
:10261000144A12884A434FF0E0235A6100229A611B
:102620001A46126942F001021A6100BF4FF0E0221F
:10263000106900F001021AB100F48032002AF5D0CE
:102640004FF0E022126922F001024FF0E0231A61FC
:1026500000229A61704700002003002000127A00D7
:10266000D80B0020DA0B0020014600BF704700BFE6
:10267000924A128802F04002002AF9D0C2B28F4B6F
:102680001B1D1A80704710B586B00446012144F224
:10269000040000F057FC4FF40070ADF81400032064
:1026A0008DF8160018208DF8170005A9844800F051
:1026B0008DF94FF48060ADF8140004208DF81700F8
:1026C00005A97F4800F082F925208DF8000003203D
:1026D0008DF801008DF8020001208DF80300684696
:1026E00000F09DFE01940020ADF80800ADF80A004E
:1026F000ADF80C00ADF810000C20ADF80E0001A9EB
:102700006E4800F0C6FC012240F225516B4800F0F3
:1027100058FD0121694800F048FD06B010BD674929
:10272000091D088000BF6549098801F040010029A2
:10273000F9D070470BE010F8011B604A121D1180A0
:1027400000BF5E49098801F040010029F9D00178F5
:102750000029F0D1704700B50D20FFF7E0FF0A20F7
:10276000FFF7DDFF00BD00B5024609E010780A283A
:1027700002D1FFF7F0FF02E01078FFF7D0FF521C04
:1027800010780028F2D100BD70B585B00246002057
:10279000002300BF0CE00A24B2FBF4F504FB15246F
:1027A00030340DF80040441CE0B20A24B2FBF4F2CD
:1027B000002AF0D10346002006E01C1A641E1DF812
:1027C00004400C54441CE0B29842F6DB20B9302699
:1027D0000446451CE8B20E5500240C5405B070BDEB
:1027E0002DE9F041054600260127284600F03EFF6E
:1027F00000F0FF08444609E0601E285C303800FB0A
:10280000076607EB87004700601EC4B2002CF3DCAC
:102810003046BDE8F08110B585B0044669462046D3
:10282000FFF7B2FF6846FFF79EFF05B010BD30B559
:1028300005460C462846FFF796FF2046FFF7EBFFBC
:1028400030BD10B540F225511C4800F09FFD10B37B
:102850001A4800F01BFDC4B21A48008800F400407A
:10286000C8B91848008800F4804060B10A2C03D031
:1028700000201449088020E01248008840F40040FD
:102880001049088019E00D2C06D10E48008840F44C
:1028900080400C49088010E00A480088C0F30D0011
:1028A00009490C5407480088401C0649088008461E
:1028B0000088C72801DD0020088010BD00380140D5
:1028C00000080140E00B0020620C0020094880470E
:1028D00009480047FEE7FEE7FEE7FEE7FEE7FEE702
:1028E000FEE7FEE7FEE7FEE704480549054A064B1A
:1028F000704700000F0D000831010008900D002006
:1029000090130020900F0020900F002010B5044677
:10291000CC48844208D10121042000F02DFB002185
:10292000042000F029FB46E0C748844208D1012179
:10293000082000F021FB0021082000F01DFB3AE0F8
:10294000C248844208D10121102000F015FB00216B
:10295000102000F011FB2EE0BD48844208D1012177
:10296000202000F009FB0021202000F005FB22E0E0
:10297000B848844208D10121402000F0FDFA00212E
:10298000402000F0F9FA16E0B348844208D1012152
:10299000802000F0F1FA0021802000F0EDFA0AE03A
:1029A000AE48844207D10121801500F0E5FA0021EC
:1029B000A01500F0E1FA10BD10B50121084600F0A5
:1029C000DBFA0021012000F0D7FA10BD2DE9F0411B
:1029D000024600250026002000230024002791F84D
:1029E00003C00CF00F0591F803C00CF0100CBCF103
:1029F000000F03D091F802C04CEA050591F800C021
:102A0000BCF1000F31D0146800202BE04FF0010C16
:102A10000CFA00F3B1F800C00CEA03069E4220D184
:102A200083004FF00F0C0CFA03F7BC4305FA03FCCC
:102A30004CEA040491F803C0BCF1280F06D14FF012
:102A4000010C0CFA00FCC2F814C00AE091F803C0B3
:102A5000BCF1480F05D14FF0010C0CFA00FCC2F894
:102A600010C0401C0828D1D31460B1F800C0BCF1DC
:102A7000FF0F34DD546800202EE000F1080C4FF009
:102A8000010808FA0CF3B1F800C00CEA03069E42F4
:102A900021D183004FF00F0C0CFA03F7BC4305FA69
:102AA00003FC4CEA040491F803C0BCF1280F05D1E3
:102AB00000F1080C08FA0CF8C2F8148091F803C071
:102AC000BCF1480F07D100F1080C4FF0010808FADB
:102AD0000CF8C2F81080401C0828CED35460BDE822
:102AE000F0814FF6FF710180022181700421C170D5
:102AF00070470246002093680B400BB1012000E0B4
:102B0000002070470146886880B270470246002066
:102B1000D3680B400BB1012000E000207047014654
:102B2000C86880B2704701617047416170470AB15F
:102B3000016100E041617047C16070474FF480322D
:102B40000A438261816182618269826970470246BB
:102B50000020434B18684FF68073184040EA02107B
:102B600008433F4B186070473E49C8617047F0B555
:102B70000A46002300240021002500F00046B6F19B
:102B8000004F02D1364EF16901E0354E7168C0F355
:102B9000034583B200F44016B6F5401F08D121F07A
:102BA00070612F4E766826F070662D4F7E6012E0C1
:102BB00000F48016B6F5801F06D1032606FA05F448
:102BC000A14341F0706106E0460D360103FA06F6B6
:102BD000B14341F0706122B1460D360103FA06F6A9
:102BE000314300F00046B6F1004F02D11C4EF161B6
:102BF00001E01B4E7160F0BD30B500228B071C0F49
:102C00000F2303FA04F2164B08338C1053F82430C8
:102C10009343134C08348D1044F8253023468C1010
:102C200053F824308C07240F00FA04F423430C4C8F
:102C300008348D1044F8253030BD0A49DC31086075
:102C40007047000000080140000C014000100140E6
:102C50000014014000180140001C01400020014008
:102C60000000014000002042DF48006840F0010001
:102C7000DD49086008464068DC490840DA49486098
:102C800008460068DA490840D749086008460068E5
:102C900020F4802008600846406820F4FE00486068
:102CA0004FF41F0088607047CF49096821F48031D4
:102CB000CD4A11601146096821F480211160B0F5F8
:102CC000803F03D0B0F5802F0ED106E0C6490968D9
:102CD00041F48031C44A116007E0C349096841F4F6
:102CE000A021C14A116000E000BF00BF704710B5CD
:102CF00001460022002300204A11012A02D1BA4CC9
:102D0000236806E0022A02D1B74C236A01E0B64CE0
:102D1000636A01F01F02012494401C400CB10120A1
:102D200000E0002010BD38B50020009000240025F0
:102D300000BF3120FFF7DBFF05460098401C0090E4
:102D40000098B0F5A06F01D0002DF2D03120FFF730
:102D5000CEFF08B1012400E00024204638BD014622
:102D60000020A14A106820F0F80040EAC10010607D
:102D70007047A04908607047024600209A4B586887
:102D800020F47C1042EA01031843974B58607047C7
:102D900098490866704701460020934A506820F021
:102DA00003000843506070478F48406800F00C00F3
:102DB0007047014600208C4A506820F0F00008431C
:102DC0005060704701460020874A506820F4E06058
:102DD00008435060704701460020834A506820F441
:102DE000605040EAC1005060704729B17E4A527A73
:102DF00002437D4B5A7204E07B4A527A82437A4BFB
:102E00005A7270477B49D8310860704701460020EC
:102E1000754A506820F440400843506070470021D4
:102E2000714A20321170704A82F82010012802D0B5
:102E300004280AD104E001216B4A2032117005E018
:102E40000521694A2032117000E000BF00BF7047C1
:102E50006949086070476449096A0143624A11621E
:102E60007047654944390860704730B50021002239
:102E7000002400235C4D6D6805F00C0121B104298C
:102E800005D0082923D105E05C4D056022E05B4DAB
:102E900005601FE0544D6D6805F47012524D6D6869
:102EA00005F48034022505EB92421CB9544D55437C
:102EB00005600BE04C4D6D6805F400351DB1504DBB
:102EC0005543056002E04D4D5543056002E04B4D12
:102ED000056000BF00BF444D6D6805F0F0010909B1
:102EE000484D6B5C0568DD4045603F4D6D6805F4FD
:102EF000E061090A434D6B5C4568DD4085603A4DF1
:102F00006D6805F46051C90A3E4D6B5C4568DD4053
:102F1000C560354D6D6805F44041890B3A4D6B5CD9
:102F2000C568B5FBF3F5056130BD29B12E4A52697C
:102F300002432D4B5A6104E02B4A526982432A4BCB
:102F40005A61704729B1284A92690243264B9A6117
:102F500004E0254A92698243234B9A61704729B164
:102F6000214AD2690243204BDA6104E01E4AD26949
:102F700082431D4BDA61704729B11B4AD268024374
:102F8000194BDA6004E0184AD2688243164BDA60C3
:102F9000704729B1144A12690243134B1A6104E0C5
:102FA000114A12698243104B1A6170471249403925
:102FB000086070470F49C86470470B49C871704773
:102FC0000948406A40F080700749486270470146EE
:102FD0000020054A92680A400AB1012000E0002062
:102FE0007047014988727047001002400000FFF8E6
:102FF000FFFFF6FE000042428004424200127A00C7
:1030000000093D00E20B0020F20B002010B5044641
:10301000FB48844209D101218803FFF7ADFF00215D
:103020004FF48040FFF7A8FF32E0F648844209D110
:1030300001214804FFF7ADFF00214FF40030FFF7F6
:10304000A8FF25E0F048844209D101218804FFF758
:10305000A0FF00214FF48020FFF79BFF18E0EB4812
:10306000844209D10121C804FFF793FF00214FF4E6
:103070000020FFF78EFF0BE0E548844208D10121D4
:103080000805FFF786FF00214FF48010FFF781FF4E
:1030900010BD2DE9F04786B005460E460024A24635
:1030A00000BFA1460027B08900B100BF2F462C8A7F
:1030B0004CF6FF700440F08804432C82AC894EF635
:1030C000F3100440B08831890843718908430443F0
:1030D000AC81AC8A4FF6FF400440B0890443AC8217
:1030E00001A8FFF7C2FEC648874202D1DDF810A052
:1030F00001E0DDF80CA0A88900F4004040B10AEB23
:10310000CA0000EB0A1031684900B0FBF1F807E093
:103110000AEBCA0000EB0A1031688900B0FBF1F835
:103120006420B8FBF0F004012009642101FB108940
:10313000A88900F4004040B1322000EBC900B0FB88
:10314000F1F000F00700044308E0322000EB091022
:103150006421B0FBF1F000F00F0004432C8106B0B5
:10316000BDE8F0874FF41651016000218180C180D5
:1031700001810C21418100218181704710B50246F7
:103180000020108A4FF2FF0318400B884C8823431D
:103190008C882343CC8823431843108210BD002120
:1031A000018041808180C180704721B1828942F4D1
:1031B0000052828104E082894DF6FF731A408281B9
:1031C0007047F0B50346002400260025002040F695
:1031D0006A17B94200D100BF1846C1F3421401F08A
:1031E0001F06012707FA06F5012C01D10C3004E077
:1031F000022C01D1103000E014301AB107682F43BF
:10320000076002E00768AF430760F0BD1AB1838A28
:103210000B43838202E0838A8B4383827047028A56
:103220004FF6F0731A400282028A0A430282704704
:1032300082894FF2FF731A40828182890A43828118
:10324000704721B1828942F00202828104E08289C2
:103250004FF6FD731A4082817047028A4FF6DF7382
:103260001A400282028A0A430282704721B1028A0E
:1032700042F48042028204E0028A4BF6FF731A4055
:1032800002827047C1F30802828070470146888835
:10329000C0F308007047818941F0010181817047C6
:1032A000028BD2B20283028B42EA01220283704770
:1032B000028B02F47F420283028B0A43028370472F
:1032C00021B1828A42F02002828204E0828A4FF693
:1032D000DF731A408282704721B1828A42F0100265
:1032E000828204E0828A4FF6EF731A40828270472E
:1032F00021B1828A42F00802828204E0828A4FF67B
:10330000F7731A408282704721B1828942F40042E9
:10331000828103E08289C2F30E028281704721B16B
:10332000828A42F40062828204E0828A4FF2FF7352
:103330001A4082827047828A4FF6FB731A4082825B
:10334000828A0A438282704721B1828A42F0020255
:10335000828204E0828A4FF6FD731A4082827047AF
:1033600002460020B1F5007F00D100BF13880B405A
:103370000BB1012000E00020704701F40072B2F5AB
:10338000007F00D100BFCA430280704770B502467B
:10339000002400230025002040F66A16B14200D127
:1033A00000BFC1F3421501F01F03012606FA03F323
:1033B000012D02D19689334006E0022D02D1168AF2
:1033C000334001E0968A33400C12012606FA04F4D9
:1033D0001688344013B10CB1012000E0002070BD0C
:1033E00010B50022002340F66A14A14200D100BFAC
:1033F0000A1201249440A3B2DC43048010BD0000F3
:10340000003801400044004000480040004C0040AB
:103410000050004031490143314A1160704770B596
:10342000002100230F22C47804B32D4C246804F437
:10343000E064C4F5E064210AC1F10403CA404478A1
:1034400004FA03F18478144021430901254C0678DD
:10345000A155047804F01F050124AC4005786D11D6
:10346000AD0005F1E025C5F8004109E0047804F05D
:103470001F050124AC401C4D0678761145F8264006
:1034800070BD1A4A0A400243154B1B1F1A60704751
:1034900039B1134A121D12680243114B1B1D1A60E9
:1034A00006E00F4A121D126882430D4B1B1D1A6065
:1034B0007047042808D14FF0E021096941F0040168
:1034C0004FF0E022116107E04FF0E021096921F09F
:1034D00004014FF0E0221161704700000000FA057E
:1034E0000CED00E000E400E080E100E080FFFF1F61
:1034F000704700000FB4044910B503AA029800F009
:103500004FF910BC5DF814FBDC0B00200FB41CB5A8
:10351000074B06AA7B4469460090059800F027F9FE
:103520000020694600F036F91CBC5DF814FB000071
:103530007D0200002DE9F0410E4604460020206285
:103540002046E168884730B3252805D0D4E9012119
:103550009047206A401CF2E7E16820460027884730
:10356000050018D0A5F14100192802D820354FF4E4
:1035700000673246294620462760FCF737FE40B1F7
:10358000012804D0F61D26F007060836D8E7361DB8
:10359000D6E72846DAE7206ABDE8F0812DE9F04158
:1035A0000646002410687529314616A510D0AFF3E1
:1035B0000080002802DA404213A507E031688A073C
:1035C00001D512A502E0490704D511A5012401E0A7
:1035D000AFF3008000210A2206F1240709E0B0FBC6
:1035E000F2FCB0FBF2F302FB1C00303078541846BA
:1035F000491C0028F3D123462A463046BDE8F04155
:1036000000F057B8000000002D0000002B00000063
:103610002000000070B504460D4621461068AFF347
:1036200000802188090502D50F4A7A4402E00E4A3B
:103630007A440E32002104F1240305E000F00F0665
:103640000009965D5E54491C0028F7D120780023BC
:10365000000704D5702D02D009B102231132204693
:10366000BDE8704000F025B83E1C000010B5431CBA
:1036700002E010F8011B71B18107FAD14FF001325D
:1036800002C88C1A8C4314EAC211F9D0C01A0A0677
:1036900003D0C01E10BDC01A10BD0A0401D0801E88
:1036A00010BD0902FCD0401E10BD70477047704726
:1036B00070472DE9F0470D4699469246044600F1C1
:1036C00024080168880604D5E06921F01001216012
:1036D00000E00120A84201DD471B00E00027A169AE
:1036E0007A1902EB0900081AA0612078C00602D4FA
:1036F0002046AFF30080002608E0D4E901211AF843
:1037000006009047206A401C761C20624E45F4DB80
:103710002078C0060AD52046AFF3008006E0D4E941
:10372000012130209047206A401C2062381EA7F1FA
:103730000107F4DC07E0D4E9012118F805009047FF
:10374000206A401C2062281EA5F10105F3DC2046FA
:10375000AFF300802078000602D50220BDE8F08794
:103760000120FBE701694A1C02610878704700B537
:103770008FB0CDE901310021059105497944CDE9AA
:10378000031011466846FFF7D5FE0FB000BD0000DC
:10379000E5FFFFFF0A6802F8010B0A6070470000AE
:1037A000074B70B50D467B44FFF7E1FF0446284602
:1037B00000F008F810B14FF0FF3070BD204670BD2A
:1037C000C5EEFFFF007B00F080007047754600F0FB
:1037D0002BF8AE4605006946534620F007008546A3
:1037E00018B020B5FFF780F8BDE820404FF0000684
:1037F0004FF000074FF000084FF0000B21F00701D9
:10380000AC46ACE8C009ACE8C009ACE8C009ACE81B
:10381000C0098D46704710B50446AFF300802046BE
:10382000BDE81040FCF7F7BC004870472C0D0020A5
:103830004FEA1153A3F58063D3F11E03A8BFD3F160
:10384000200C08DB4FF0004242EAC12252EA5052FB
:1038500032FA03F0704709420BD4102BC4BF00208A
:10386000704703F5787CBCF1FF3F05D04FF0FF3087
:1038700070474FF00000704770B500F0C3F800BF0C
:103880004992248000207047F0E7B0FA80F310FAE4
:1038900003F10AD0C3F11D0303F580634FEA4150E1
:1038A0004FEA035202EBD12170474FF000007047FE
:1038B000DFF848C170B51CEA111E1EBF1CEA1315C3
:1038C0009EEA0C0F95EA0C0F00F06F8081EA03046A
:1038D00023EA4C134EEAD47E21EA4C1141F48011C4
:1038E00043F48013AE44A1FB024CA0FB0365AEF190
:1038F0007F7E361955EB0C05A1FB034C4CF1000300
:10390000A0FB021C16EB0C06654153F100030942B3
:1039100018BF46F0010613F4007F0BD14FEA0331C4
:103920004FEA0530340341EA155140EA16506FF072
:1039300003020AE04FEAC3214FEAC520F40241EA3C
:10394000555140EA56506FF0020202EB2E4201EB55
:10395000025585EACE710AD05FEA440C18BF24F004
:10396000004450F1000041F1000120EAD47040F21F
:10397000FE7C624500D270BDA84214BF4FF0804467
:103980004FF04044002E08BF0024BEF1806FA8BF56
:10399000A1F1C041BDE8704080F282804FF000008C
:1039A00001F1C04101F0004170479EEA0C0F0CEAA2
:1039B000131518BF95EA0C0F06D04FF0000081EAEE
:1039C000030E0EF0004170BD00F01CF88900013EAE
:1039D00000F007B800F009B84FEA430C5FEA5C5CFE
:1039E00008D081EA030100F05BB84FEA410C5FEABE
:1039F0005C5CF6D14FF00000014970470000FF0702
:103A00000000F87F0EF1020E2EF0030E5EF8046B3C
:103A1000364205D4012A43EB030515F5001F12D8E1
:103A2000012841EB010C1CF5001F0CD80ED14FEA08
:103A3000D17C15F5001F0CEB4C0C0CF1020C08BFEF
:103A40004CEBD37C04E04FF0080C01E04FEAD37C50
:103A50000CEB4C0526FA05F606F00706B6F1040C49
:103A600006D20EEB860CBDE870404CF0010C6047AE
:103A7000DFE80CF0090B02024FF000414FF00000AC
:103A8000A1F5002170BD19461046012851EB010433
:103A900018BFD4F5001484BF002001F0004170BDB0
:103AA0000808A0F500114FEA31017047000000003E
:103AB0000000000000000000000000003F40000087
:103AC0000000000000003000400030004000000016
:103AD00009000BC03D000BC03D00090018C0244088
:103AE0007FE0224031800000180024C01B000D80C0
:103AF0003240018003801C4027401C80074000406A
:103B00001000600000000000000000000000000045
:103B100000001F80204040200000402020401F80E7
:103B200000000000090006001F80060009000000D8
:103B3000040004003F800400040000000010006046
:103B40000000000000000000040004000400040065
:103B50000400000000000040000000000000000021
:103B6000002001C006003800400000001F802040F7
:103B7000204020401F800000000010403FC0004057
:103B80000000000018C021402240244018400000DE
:103B900010802040244024401B80000002000D00C3
:103BA00011003FC0014000003C80244024402440DC
:103BB000238000001F802440244034400380000004
:103BC0003000200027C03800200000001B80244067
:103BD000244024401B8000001C0022C022402240C0
:103BE0001F800000000000000840000000000000EE
:103BF000000000000460000000000000000004005D
:103C00000A00110020804040090009000900090055
:103C10000900000000004040208011000A0004005C
:103C20001800200023402400180000001F802040BE
:103C3000274029401F400000004007C039000F0006
:103C400001C0004020403FC0244024401B800000B1
:103C50001F802040204020403080000020403FC096
:103C6000204020401F80000020403FC024402E40C4
:103C700030C0000020403FC024402E003000000033
:103C80000F001080204022403380020020403FC0BF
:103C9000040004003FC02040204020403FC020409E
:103CA000204000000060202020203FC02000200095
:103CB00020403FC024400B0030C0204020403FC087
:103CC00020400040004000C03FC03C0003C03C001A
:103CD0003FC0000020403FC00C4023003FC02000F8
:103CE0001F802040204020401F80000020403FC017
:103CF00024402400180000001F802140214020E0C3
:103D00001FA0000020403FC02440260019C00040F2
:103D100018C0244024402240318000003000204060
:103D20003FC020403000000020003F8000400040A5
:103D30003F80200020003E0001C007003800200026
:103D4000380007C03C0007C038000000204039C0E0
:103D5000060039C0204000002000384007C038402D
:103D600020000000304021C02640384020C0000024
:103D7000000000007FE040204020000000007000B4
:103D80000C000380004000000000402040207FE045
:103D900000000000000020004000200000000000A3
:103DA00000100010001000100010001000000000B3
:103DB00040000000000000000000028005400540B7
:103DC00003C0004020003FC00440044003800000C6
:103DD000000003800440044006400000000003800F
:103DE000044024403FC000400000038005400540DF
:103DF00003400000000004401FC024402440200075
:103E0000000002E0055005500650042020403FC04D
:103E10000440040003C000400000044027C00040EC
:103E20000000000000100010041027E00000000057
:103E300020403FC00140070004C004402040204013
:103E40003FC000400040000007C0040007C004005D
:103E500003C00000044007C00440040003C0004049
:103E6000000003800440044003800000041007F0B9
:103E7000045004400380000000000380044004500C
:103E800007F00010044007C00240040004000000D6
:103E9000000006400540054004C00000000004008A
:103EA0001F800440004000000400078000400440E0
:103EB00007C000400400070004C0018006000400A1
:103EC000060001C0070001C006000000044006C053
:103ED000010006C0044000000410071004E0018047
:103EE000060004000000044005C006400440000035
:103EF0000000000004007BE0402000000000000003
:103F00000000FFF000000000000040207BE0040003
:103F10000000000040008000400020002000400021
:103F20000000000000000000000000000000000091
:103F30000000000000001FCC000C0000000000008A
:103F40000000080030006000080030006000000041
:103F5000022003FC1E20022003FC1E200220000081
:103F600000000E1811043FFF10840C7800000000C0
:103F70000F0010840F3800C0077818840078000004
:103F800000780F8410C411240E9800E40084000807
:103F90000800680070000000000000000000000041
:103FA00000000000000007E0181820044002000094
:103FB000000040022004181807E000000000000084
:103FC0000240024001800FF00180024002400000E8
:103FD0000080008000800FF80080008000800000DA
:103FE0000001000D000E00000000000000000000B5
:103FF0000000008000800080008000800080008041
:104000000000000C000C0000000000000000000098
:104010000000000600180060018006001800200063
:10402000000007F0080810041004080807F000005A
:104030000000080408041FFC000400040000000045
:1040400000000E0C10141024104411840E0C0000FB
:1040500000000C1810041104110412880C700000E8
:10406000000000E00320042408241FFC00240000BA
:1040700000001F98108411041104108810700000B3
:10408000000007F00888110411041888007000006F
:1040900000001C00100010FC13001C0010000000A9
:1040A00000000E3811441084108411440E380000B2
:1040B00000000700088C10441044088807F0000036
:1040C000000000000000030C030C000000000000D2
:1040D00000000000000101060000000000000000D8
:1040E00000000080014002200410080810040000B5
:1040F00002200220022002200220022002200000D2
:104100000000100408080410022001400080000094
:1041100000000E001200100C106C10800F00000048
:1041200003E00C1813E4142417C4082807D0000077
:104130000004003C03C41C40074000E4001C0004D1
:1041400010041FFC1104110411040E8800700000FB
:1041500003E00C1810041004100410081C100000D8
:1041600010041FFC100410041004080807F00000DD
:1041700010041FFC1104110417C4100408180000D7
:1041800010041FFC1104110017C0100008000000EB
:1041900003E00C181004100410441C7800400000C8
:1041A00010041FFC10840080008010841FFC100489
:1041B0000000100410041FFC100410040000000094
:1041C00000030001100110011FFE1000100000008C
:1041D00010041FFC110403801464181C1004000058
:1041E00010041FFC1004000400040004000C000074
:1041F00010041FFC1F0000FC1F001FFC1004000027
:1042000010041FFC0C04030000E010181FFC100039
:1042100007F00808100410041004080807F0000054
:1042200010041FFC10841080108010800F0000000C
:1042300007F0081810241024101C080A07F20000C8
:1042400010041FFC1104110011C011300E0C0004E9
:1042500000000E1C11041084108410441C3800004F
:104260001800100010041FFC1004100018000000BB
:1042700010001FF810040004000410041FF81000C0
:1042800010001E0011E0001C007013801C001000C4
:104290001FC0103C00E01F0000E0103C1FC00000E9
:1042A0001004180C163401C001C01634180C100488
:1042B00010001C00130400FC13041C00100000007C
:1042C0000804101C1064108413041C04101800004F
:1042D0000000000000007FFE40024002400200009B
:1042E000000030000C0003800060001C0003000090
:1042F00000004002400240027FFE0000000000007B
:1043000000000000200040004000400020000000AD
:104310000001000100010001000100010001000195
:1043200000004000400020000000000000000000ED
:1043300000000098012401440144014400FC0004F1
:1043400010001FFC008801040104008800700000B8
:1043500000000070008801040104010400880000CE
:104360000000007000880104010411081FFC000413
:10437000000000F8014401440144014400C8000069
:104380000000010401040FFC1104110411001800C5
:10439000000000D601290129012901C901060000F8
:1043A00010041FFC008401000100010400FC000453
:1043B00000000104190419FC0004000400000000BE
:1043C0000000000300010101190119FE00000000B6
:1043D00010041FFC0024004001B4010C0104000083
:1043E0000000100410041FFC000400040000000082
:1043F000010401FC0104010001FC0104010000FCB6
:10440000010401FC008401000100010400FC00041F
:10441000000000F8010401040104010400F8000098
:10442000010101FF00850104010400880070000003
:1044300000000070008801040104010501FF000173
:104440000104010401FC008401040100018000005A
:10445000000000CC01240124012401240198000063
:1044600000000100010007F8010401040000000041
:10447000010001F8000400040004010801FC00042C
:10448000010001800170000C00100160018001003A
:1044900001F0010C003001C00030010C01F00100FE
:1044A00000000104018C00740170018C0104000003
:1044B000010101810171000E0018016001800100FD
:1044C00000000184010C013401440184010C00004E
:1044D000000000000000000001003EFC400240021D
:1044E0000000000000000000FFFF000000000000CE
:1044F0000000400240023EFC0100000000000000FD
:10450000000060008000800040004000200020008B
:10451000000000000000000000000000000000009B
:10452000000000000000000000000000000000008B
:10453000000000000000000000000000000000007B
:104540000000000F80380FFE380F80380000000098
:10455000000000000000000000000000000001005A
:10456000000600000C0000380000310000060000CA
:104570000C000038000030000000000000000000C7
:1045800061800067F807F980006180006180006148
:10459000800061800067F807F980006180000000FA
:1045A00000000000000001C0E003E0F00630080455
:1045B00018081FFFFE040E080787F00381E00000C3
:1045C0000000000001F000060C00040408060C7056
:1045D00001F9C0000E00003BE000EC1807080804D9
:1045E0000C180003E00000000001E00007F003F8F1
:1045F00018041C0804170807E1D003C0E00023B02A
:10460000003C08002008000010000000000000012D
:1046100000003100003200001C000000000000001B
:10462000000000000000000000000000000000008A
:10463000000000000000000000000000000000007A
:104640007F0001FFC00780F00C001810000420005C
:10465000020000000000002000021000040C0018FE
:104660000780F001FFC0007F000000000000000094
:104670000000000000000000000000004200006692
:1046800000006600003C0000180003FFC000180096
:10469000003C0000660000660000420000000000D0
:1046A000080000080000080000080000080001FFE2
:1046B000C000080000080000080000080000080012
:1046C00000000000000100003100003200001C006A
:1046D00000000000000000000000000000000000DA
:1046E00000000000000000000800000800000800B2
:1046F0000008000008000008000008000008000092
:104700000800000800000000000000000000000099
:1047100038000038000038000000000000000000F1
:104720000000000000000000000000000000000089
:10473000000600001C000070000180000E00003820
:104740000000C0000700001C000030000000000056
:10475000000000007F8001FFE00380700600180465
:10476000000804000806001803807001FFE0007FC5
:1047700080000000000000000000010008010008A7
:1047800001000803FFF807FFF80000080000080018
:10479000000800000000000000000001C03802C056
:1047A00058040098040118040218040418061C1880
:1047B00003F81801E0F8000000000000000000010C
:1047C000C0E003C0F0040008040808040808061844
:1047D0000803F41801E7F00001E000000000000009
:1047E000000000000300000D000011000061000047
:1047F000810803010807FFF80FFFF8000108000116
:10480000080000000000000000E007FCD0060808D7
:10481000061008061008061008061838060FF006DD
:1048200007C0000000000000000000003F8001FF02
:10483000E00384300208180410080410080410086B
:10484000071810030FF00007C00000000000000070
:10485000000003C0000700000600000600F806077D
:10486000F806180006E0000700000600000000003F
:1048700000000001E1E003F7F0063410041808041A
:104880001808040C08040C0806161803F3F001C1FC
:10489000E000000000000000F80003FC30030638D0
:1048A0000402080402080402080404100308F001CA
:1048B000FFC0007F000000000000000000000000BA
:1048C00000000000000000007038007038007038F0
:1048D00000000000000000000000000000000000D8
:1048E000000000000000000000000000301A00304E
:1048F0001C0000000000000000000000000000009C
:104900000000000000000008000014000022000069
:1049100041000080800100400200200400100800D7
:10492000080000000000000021000021000021001C
:1049300000210000210000210000210000210000D2
:10494000210000210000000000000000000008001D
:104950000804001002002001004000808000410097
:104960000022000014000008000000000000000306
:10497000C00004C000040000080038080F38080810
:10498000380810000C300007E00003C000000000F1
:10499000000000003F8000FFE0038070020F10065F
:1049A000708804C088048308047F8802C0900301D3
:1049B0002000FE400000080000180001F8003E083A
:1049C00001C20007020007E20000FE00001FC8004D
:1049D00001F800003800000804000807FFF807FF8E
:1049E000F804080804080804080804080806180859
:1049F00003F41801E7F00001E000000000000000EF
:104A00003F8001FFE00380700200180400080400EA
:104A1000080400080400100600200780C000000001
:104A200004000807FFF807FFF80400080400080462
:104A3000000804001802001003807001FFE0007FEE
:104A40008000000004000807FFF807FFF8040808CA
:104A5000040808040808040808043E0804000806BE
:104A6000001801006000000004000807FFF807FFBD
:104A7000F8040808040800040800040800043E00C4
:104A80000600000600000180000000000000000099
:104A90003F8001FFE0038070060018040008040254
:104AA000080402080203F00783F00002000002007D
:104AB00004000807FFF807FFF804080800080000D2
:104AC000080000080000080004080807FFF807FFB6
:104AD000F8040008000000000000040008040008BA
:104AE00004000807FFF807FFF804000804000804A2
:104AF00000080000000000000000000000060000A8
:104B00000700000104000104000104000307FFFE88
:104B100007FFFC0400000400000400000400080774
:104B2000FFF807FFF8040C08001800003E0004C757
:104B3000800503C80600F8040038040018000008C7
:104B400004000807FFF807FFF80400080000080049
:104B5000000800000800000800000800001800001D
:104B60006000000004000807FFF807800807FC0049
:104B7000007FC00003F80007C00078000780080726
:104B8000FFF807FFF804000804000807FFF8070013
:104B90000803C00000E000003800001E000007000D
:104BA0000001C00400F007FFF8040000000000004E
:104BB0007F8001FFE00380700600180400080400F5
:104BC0000806001803003001FFE0007F80000000AD
:104BD00004000807FFF807FFF804040804040004B1
:104BE0000400040400040400060C0003F80001F0B3
:104BF00000000000000000007F8001FFE0038070E3
:104C00000600880400880400C806003C03003E013A
:104C1000FFE6007F8400000004000807FFF807FF9C
:104C2000F8040808040800040C00040F00040BC07A
:104C30000610F003F03801E0080000080000000151
:104C4000E0F803F030063010041808041808040CCB
:104C500008040C080206180207F00781E0000000B3
:104C600001800006000004000004000004000807A2
:104C7000FFF807FFF8040008040000040000060025
:104C80000001800004000007FFE007FFF0040018A7
:104C900000000800000800000800000800000804E8
:104CA000001007FFE004000004000006000007E019
:104CB0000007FE00041FE00001F80000380001E0DA
:104CC000043E0007C00006000004000004000007C6
:104CD000E00007FFC0041FF80007C007F80007FF47
:104CE00080043FF80007C004F8000700000400003B
:104CF00000000004000806001807C07805F1C8008D
:104D00003E00001F800463E80780F80600180400D6
:104D10000800000004000006000007800007E0080B
:104D2000047C08001FF80007F800180804E00807D2
:104D3000000006000004000000000001000806005A
:104D4000380400F80403E8040F08047C0805F008A0
:104D500007C0080700180400600000000000000001
:104D600000000000000000000000003FFFFE2000E7
:104D700002200002200002200002200002000000A9
:104D800000000000000008000007000000C0000054
:104D900038000006000001C000003000000E0000D6
:104DA00001000000000000000000200002200002BE
:104DB0002000022000022000023FFFFE0000000051
:104DC00000000000000000000000000000000000E3
:104DD000000800001000003000002000003000003B
:104DE00010000008000000000000000000000100AA
:104DF00000010000010000010000010000010000AE
:104E0000010000010000010000010000010000019C
:104E10000000000000000000002000002000001042
:104E20000000100000000000000000000000000072
:104E3000000000000000000000F00019F8001B183E
:104E4000002208002608002408002410003FF80073
:104E50001FF800000800001800000004000007FF11
:104E6000F80FFFF0001818001008002008002008B4
:104E7000003018001FF0000FC0000000000000000C
:104E800007C0001FF0001830002008002008002094
:104E900008003C08001C100000600000000000003A
:104EA0000000000007C0001FF000381800200800B4
:104EB000200800200804101007FFF80FFFF0000082
:104EC000100000000000000000000007C0001FF0FC
:104ED00000123000221800220800220800320800C8
:104EE0001E10000E20000000000000002000002026
:104EF0000800200801FFF803FFF806200804200836
:104F0000042008072000030000000000000000004B
:104F1000000E000E6E001FF30031B10020B1002022
:104F2000B1003191001F13002E1E00200E00300032
:104F300000000004000807FFF80FFFF80010080049
:104F40002000002000002008003FF8001FF80000AB
:104F500008000000000000000000002008002008F9
:104F6000002008063FF8063FF8000008000008008F
:104F70000008000000000000000000000000000029
:104F800003000003002001002001002003063FFE73
:104F9000063FFC00000000000000000000000004CC
:104FA000000807FFF80FFFF8000188000300002F3A
:104FB000C00038F800203800200800000800000079
:104FC00000000000000004000804000804000807B6
:104FD000FFF80FFFF80000080000080000080000BC
:104FE00000000000002008003FF8003FF800100813
:104FF000002000003FF8003FF800100800200000EB
:105000003FF8003FF8000008000000002008003FC3
:10501000F8003FF8001008001000002000002008F1
:10502000003FF8001FF8000008000000000000002A
:1050300007C0000FF00018300030080020080020E2
:1050400008003008001830000FF00007C000000012
:10505000000000002001003FFF003FFF0010110092
:105060002009002008002008003038001FF0000F41
:10507000C00000000000000007C0001FF00038184A
:10508000002008002008002009001011001FFF0068
:105090003FFF000001000000002008002008002061
:1050A00008003FF8003FF80008080010080020083A
:1050B0000020000030000030000000000000000070
:1050C0000000000C78001E1800330800230800219F
:1050D000080021880021980030F0003860000000AE
:1050E00000000000200000200000200000FFF0036E
:1050F000FFF8002008002008002008000030000011
:1051000000000000000000002000003FF0007FF8D9
:10511000000018000008000008002010003FF80000
:105120007FF00000100000000000000020000030B0
:1051300000003C00003F800023F000007800007079
:10514000002380003C000030000020000020000010
:105150003C00003FE00023F80000E0002700003E94
:1051600000003FE00021F80001E0003E00002000C8
:10517000000000002008002008003838003E6800C9
:1051800027800003C8002CF80038380020180020C1
:1051900008000000000000002000003003003C0177
:1051A000003F830023EC000070002380003C0000DF
:1051B0002000002000000000000000000000003877
:1051C000080020380020F80023E8002F88003E085F
:1051D00000380800201800007000000000000000E7
:1051E00000000000000000000000000008000014A3
:1051F000001FF7FC30000620000200000000000045
:10520000000000000000000000000000000000009E
:105210000000FFFFFF000000000000000000000091
:105220000000000000000000000020000230000626
:105230001FF7FC0014000008000000000000000040
:1052400000000000000000000000001800006000E6
:105250000040000040000020000010000008000096
:105260000400000400000C00001000003031323354
:10527000343536373839414243444546403058008A
:1052800030313233343536373839616263646566BC
:105290004030780020000000C8B7C8CFB6A9B5A537
:1052A00000000000B1ACB3B4B7CAB3A60000000060
:1052B000C4BEB6FAB3B4BCA600000000CDF5C0CFA2
:1052C000BCAA0000D7CFB2CBB5B0CCC0D2BBD2BB4A
:1052D000D2BB3130D4AA0000CEF7BAECCAC1B5B007
:1052E000CCC0D2BBD2BB3130D4AA0000C5A9BCD23D
:1052F000B3B4C8E2D2BBD2BBD2BB3132D4AA000015
:10530000B1ACB3B4B7CAB3A6D2BBD2BBD2BB3232F4
:10531000D4AA0000CDF5C0CFBCAAD2BBD2BBD2BBB1
:10532000D2BB34D4AA000000D5A5B2CBB7DBCBBF2B
:10533000CCC0D2BBD2BB3135D4AA0000C6A1BEC6F8
:10534000D2BBD2BBD2BBD2BBD2BB36D4AA000000E8
:10535000C4BEB6FAB3B4BCA6D2BBD2BBD2BB313842
:10536000D4AA0000D0A1B3B4C5A3C8E2D2BBD2BBBB
:10537000D2BB3238D4AA0000D3E3CDB7BBF0B9F822
:10538000D2BBD2BBD2BB3338D4AA0000D1F2C8E220
:10539000BBF0B9F8D2BBD2BBD2BB3438D4AA000020
:1053A000C7E5B3B4CAB1CADFD2BBD2BBD2BB38D413
:1053B000AA000000BAF4BDD0B7FECEF1D4B1D2BB82
:1053C000D2BBD2BB00000000D2BBD2BBD2BBD2BB8F
:1053D000D2BBD2BBD2BBD2BBD2BB0000D2FBC1CFAF
:1053E000D2BBD2BBD2BBD2BBD2BBD2BB000000006F
:1053F000B7E7CEB6B3B4B2CBD2BBD2BBD2BBD2BB73
:1054000000000000CED2B5E3B5C4B2CBD2BBD2BB54
:10541000D2BBD2BB00000000C7E5B5ADCCC0C0E038
:10542000D2BBD2BBD2BBD2BB00000000BFDACEB62B
:10543000BBF0B9F8D2BBD2BBD2BBD2BB00000000DC
:10544000CEF7BAECCAC1B5B0CCC00000D7CFB2CB52
:10545000B5B0CCC000000000D5A5B2CBB7DBCBBF48
:10546000CCC00000C6A1BEC600000000C7E5B3B4B2
:10547000CAB1CADF00000000D0A1B3B4C5A3C8E21E
:1054800000000000C5A9BCD2B3B4C8E2000000000F
:10549000D3E3CDB7BBF0B9F800000000D1F2C8E209
:1054A000BBF0B9F800000000C8540008000000205C
:1054B000F80B00006C010008F45C0008F80B0020F9
:1054C00098070000D0010008520001100650530058
:1054D0000864041200081006EC520008A0081278B4
:1054E0000C128C1012C41012D81412282412142872
:1054F000123C2412C81812B028100678540008A4D0
:1055000030128408126C0C129010129C0C124C0475
:1055100012401412582012BC28126418129444121B
:10552000126C121C04121604120C0412087C1226AF
:1055300080123010520A04120F1812041C83060045
:1055400001210C12F080C30100012118122C6C0201
:105550001102181218840211033012DCC80211045F
:10556000301204B40211053012B4F8213833BD06EC
:10557000AF3130560534120BC0432502182005A860
:1055800000002018254802110C18255C02110D306E
:10559000257002110E182584D20F4821E8259802A3
:1055A00011151825ACD21678250025C002111F1838
:1055B00025D4522090215C21D8213025E8021121E8
:1055C0007825FC021129902910D22AD825D825F057
:1055D0001233B0031073071802153418021535186A
:1055E0000215361802153718021538180211391825
:1055F0001A98A0163A8883E106186510780400A26C
:105600004A2B300D0102030406070809C5A9000151
:105610000218067FFC420482332017050808901800
:10562000A02840482088100A080C060800BCD200B8
:105630000221141EFE400280047FFC02000D08714E
:105640009002A00CC071A006981886E2800100CDDF
:10565000F5B3437FFC4A214E833FF80C100901004B
:10566000FFFE0000C0CF46100C02083FD00220020F
:1056700040FFFE010E70130C1018E02F0048088840
:1056800008080807F80000BCAA3061462DCF033097
:10569000041FF010012108200FC6A1000040008067
:1056A0007BFC4A244A244B06400C444BFC4890792E
:1056B000104FFE0010021BBEC6CF101A4FFE20A0D6
:1056C00020A007FC84A444A454A4151C2604E404CC
:1056D00027FC24042406101C0404D7CF00088028CB
:1056E000882EF028842E84F07C020004201FC00144
:1056F000800610B7200A08112025104208B5B0D046
:10570000100D04110011F81100290047FE818810C6
:1057100004111011861C0B110001087FFC2004CE1F
:10572000F7C8032005FFFE04400240053FF8244867
:1057300002100628383008200210193FF82008CA45
:10574000C10010401020100013FEFC20102031FC7E
:1057500039245502100991241124113411281A30CA
:105760000420D5A523101313FE128AFD04108030E7
:10577000FE39405640507C904016127E04110810AD
:1057800004B7DB00FF101150945054505888108813
:10579000FD0432FA38485402100490481010200CCE
:1057A00011281210CBBF0008100810512009224404
:1057B00042847CF804080E280520407EFC062581E2
:1057C0001FD1F22203640504200440A865A4656E7D
:1057D0001C050100D3E3AC04200504000FE03A10DF
:1057E000067FF8A10821C63221066146100FCDB709
:1057F0000000800080088004802480100237008030
:10580000AE2C0E400220041008083004C004CAB1B7
:105810000B051009087C08440845FE4406110A10CF
:1058200004884448023114100700280010CADF8C95
:105830001FFFFEB203100F107DFE0420184851FE1A
:1058400050025CA85002380B5D2A712AC22A040655
:10585000D6F776A957A955295313B2CB46614828E4
:105860000900F83F0011100820CA140C0540092057
:105870003118C1060100B55E111525A09221CEA9EF
:10588000651BB7E730173FF03A100E102850245030
:10589000229022902110211008280C92244A484A74
:1058A00040068002CEB67618044078406C22400252
:1058B000200F4FFE48E0495079504A4804440842BE
:1058C0001C2404B3B4007D1145001922A854A45827
:1058D000A2512291201224102410282808241044B8
:1058E0002040C083AF33CCD8461006502051FC7CFA
:1058F00006140B93FE10081C08F1FE5008E8164829
:10590000E02406281010C9AB5D1404001FE0DD3749
:1059100040BF9E25A61E2037052102161FEA73D51B
:10592000F46920091FC000447D880550613C04C50E
:10593000060252031C0724884244C7E54803180D99
:10594000204017FC104083F8404047FEA31005F8A4
:105950002208E304122304100722280210B5AD2305
:10596000141922441244144880A0411046081044DF
:1059700010402248E248245020A0201D1C041FCCC7
:10598000C05A051323F0F51808408080410043FCFD
:10599000D7100D242124E2242244244428842146C3
:1059A0001FC0E0C8037404111009981C0411106092
:1059B000F9061FFFFE4C043C0A4008203018C006C0
:1059C000BFDAB6072D3003011002211607210000AF
:1059D000815FBBF07B0413110802200810212021F5
:1059E0000042806521671D19031C0608C006B9F82E
:1059F0001806142321FC39042104410479FCA02059
:105A00002020FBFE22222252228A2B0A3202220A64
:105A10000204D2FB002018440A20403E7C44844803
:105A20008881D31C0F50105012501488188811040C
:105A30000202C13D0410090808884A482A482C0877
:105A40004C0BFE4818481C082A0E2AF8C9042101EC
:105A50001C0DCED20004400E507848084808EC04D3
:105A60002C17084008440A440C4818306822085291
:105A7000088A2B061002B5E30F051D05051E03510C
:105A8000055A0280240520103FF0A01DC3032C06F8
:105A9000448004B5C41A04118C20117E7C428442D7
:105AA00084430442447E2442244204021C047E04B3
:105AB0004248032FBAF46B0318153C7BE048204999
:105AC0002448A448A848204BFE48207820481011BC
:105AD000ED2C06A00040BDD081088005047C8444E4
